S01700004173686F7427735F70726F6A6563742E737265631E
S11300000C9434000C9461000C945D010C94460033
S11300100C9446000C9446000C9446000C94830007
S11300200C9446000C9446000C9446000C94460034
S11300300C9446000C9446000C9408010C94460061
S11300400C9446000C9446000C9446000C94460014
S11300500C9446000C9446000C9446000C94460004
S11300600C9446000C94460011241FBECFEFD8E038
S1130070DEBFCDBF21E0A0E0B1E001C01D92A731F9
S1130080B207E1F70E94C7010C94FC010C94000034
S113009082E084BD85BD80936E0016BC97EC97BD4D
S11300A08093B0008093B100809370001092B200EE
S11300B09093B300089583E0809369008DBB8CBB5B
S11300C008951F920F920FB60F9211248F939F934E
S11300D080911201813081F481E090E090930B01D2
S11300E080930A01109204011092030180E090EAC7
S11300F090930D0180930C019F918F910F900FBEEF
S11301000F901F9018951F920F920FB60F92112403
S11301102F938F939F9380910A0190910B010197E4
S113012009F06EC010921201289A8091020188236E
S113013009F453C08091030190910401009731F5B3
S113014095B182E0892785B98091130190911401BA
S11301500196909314018093130180910C01909166
S11301600D018530910559F09695879590930D0171
S113017080930C0190930401809303010CC084E0EC
S113018090E0909304018093030105C0019790933C
S11301900401809303018091130190911401803E26
S11301A09E4271F510921401109213018091020184
S11301B081508093020185B18C7F85B995B184E02B
S11301C0892785B98FEF91EE24E08150904020403B
S11301D0E1F700C00000289A13C02A9A28981092C8
S11301E00B0110920A0181E090E090930101809349
S11301F00001109211011092100184E08093020119
S11302009F918F912F910F900FBE0F901F90189573
S11302101F920F920FB60F9211248F939F93809188
S1130220000190910101019709F040C05F9A80910B
S11302301001909111010097A1F49BB180E48927EA
S11302408BB980910E0190910F01019690930F014B
S113025080930E0182E390E090931101809310014A
S113026005C00197909311018093100180910E01B4
S113027090910F01883C9105C9F410920F011092DE
S11302800E0110920101109200018BB11BB88BB1C9
S11302908BB981E08093120181E090E090930B018F
S11302A080930A0110920401109203019F918F918F
S11302B00F900FBE0F901F9018951F920F920FB6BC
S11302C00F9211242F933F938F939F93EF93FF9358
S11302D0109216011092120110920B0110920A0151
S11302E010920101109200015F98289895B180E264
S11302F0892785B98BB1887080931501811139C024
S113030032E090E421E089B1807180930501882373
S113031071F0289A85B1832785B9EFECF7E031971E
S1130320F1F700C00000809105018111F2CF2898F7
S113033089B180728093080113C0209316015F9ADB
S11303408BB189278BB9EFE1FEE43197F1F700C057
S11303500000809116018F5F80931601893C78F329
S1130360809108018111E9CF5F988091150188235C
S113037051F281E080931201FF91EF919F918F914F
S11303803F912F910F900FBE0F901F9018951092D0
S113039001011092000110920F0110920E011092AF
S11303A011011092100110920B0110920A01109287
S11303B0140110921301109204011092030184E0BD
S11303C08093020181E08093120187E284B984E280
S11303D085B91BB880EC8AB9F8940E945B000E942E
S11303E0480078942FEF83ED90E3215080409040B3
S10F03F0E1F700C00000F6CFF894FFCF46
S9030000FC
