S01700004173686F7427735F70726F6A6563742E737265631E
S11300000C9434000C9461000C94C0010C944600D0
S11300100C9446000C9446000C9446000C949E00EC
S11300200C9446000C9446000C9446000C94460034
S11300300C9446000C9446000C944F010C9446001A
S11300400C9446000C9446000C9446000C94460014
S11300500C9446000C9446000C9446000C94460004
S11300600C9446000C94460011241FBECFEFD8E038
S1130070DEBFCDBF21E0A0E0B1E001C01D92AD31F3
S1130080B207E1F70E94A1020C94DF020C94000075
S113009082E084BD85BD80936E0016BC97EC97BD4D
S11300A08093B0008093B100809370001092B200EE
S11300B09093B300089583E0809369008DBB8CBB5B
S11300C008951F920F920FB60F9211248F939F934E
S11300D08BB1827090E09093030180930201892B8D
S11300E0E1F480911801813081F481E090E09093F3
S11300F00F0180930E01109206011092050180E019
S113010090EA90931101809310018BB1827090E07A
S113011090930301809302010AC010921801109277
S11301200F0110920E0110920101109200019F9193
S11301308F910F900FBE0F901F9018951F920F92E2
S11301400FB60F9211242F938F939F938BB18270CC
S113015090E09093030180930201892B09F08DC0F4
S113016080910E0190910F01019709F07EC01092C9
S11301701801289A80910401882309F463C08091AE
S1130180050190910601009731F595B182E0892728
S113019085B98091190190911A01019690931A01E1
S11301A0809319018091100190911101883091057B
S11301B058F0969587959093110180931001909330
S11301C00601809305010CC084E090E09093060141
S11301D08093050105C00197909306018093050162
S11301E08BB1827090E09093030180930201892B7C
S11301F0E1F58091190190911A01803E9E42D1F45B
S113020010921A0110921901809104018150809377
S1130210040185B18C7F85B995B184E0892785B9BE
S11302208FEF91EE24E0815090402040E1F700C030
S11302300000289A8BB1827090E090930301809320
S1130240020113C02A9A289810920F0110920E01ED
S113025081E090E0909301018093000110921701D6
S11302601092160182E0809304018BB1827090E0B9
S113027090930301809302010AC010921801109216
S11302800F0110920E0110920101109200019F9132
S11302908F912F910F900FBE0F901F9018951F9262
S11302A00F920FB60F9211248F939F938BB182708C
S11302B090E09093030180930201892B09F04FC0D1
S11302C08091000190910101019709F040C05F9A6B
S11302D080911601909117010097A1F49BB180E4DD
S11302E089278BB980911201909113010196909303
S11302F013018093120182E390E09093170180939D
S1130300160105C0019790931701809316018091FF
S1130310120190911301883C9105C9F410921301C4
S11303201092120110920101109200018BB11BB8BE
S11303308BB18BB981E08093180181E090E09093B8
S11303400F0180930E0110920601109205018BB1EA
S1130350827090E090930301809302010AC010928E
S1130360180110920F0110920E01109201011092C7
S113037000019F918F910F900FBE0F901F901895C1
S11303801F920F920FB60F9211242F933F934F9306
S11303908F939F9310921C011092180110920F01D9
S11303A010920E0110920101109200015F9828989A
S11303B095B180E2892785B98BB1827090E09093E2
S11303C0030180930201892B09F0AEC08BB18870C0
S11303D080931B018111A8C032E020E441E08BB17D
S11303E0827090E09093030180930201892B01F5C0
S11303F089B180718093070117C0289A85B183273A
S113040085B98FEC97E00197F1F700C0000089B13E
S11304108071809307018BB1827090E09093030107
S113042080930201892B21F0809107018111E5CF8E
S1130430289889B1807280930A0120C040931C01DE
S11304405F9A8BB182278BB98FE19EE40197F1F714
S113045000C0000089B1807280930A018BB1827060
S113046090E09093030180930201892B39F08091ED
S11304701C018F5F80931C01893C10F380910A0159
S11304808111DCCF5F9883B1807190E09093150166
S1130490809314013BC083B1887090E090930C0169
S11304A080930B011AC0289A85B1832785B98FECF4
S11304B097E00197F1F700C0000083B1887090E0E5
S11304C090930C0180930B018BB1827090E0909318
S11304D0030180930201892B31F080910B019091EB
S11304E00C01019701F385B18C7F85B983B18071CB
S11304F090E090931501809314018BB1827090E089
S11305009093030180930201892B39F080911401A7
S113051090911501019709F4BECF8BB18870809337
S11305201B01882309F45BCF81E0809318019F911C
S11305308F914F913F912F910F900FBE0F901F906D
S1130540189510920101109200011092130110925B
S11305501201109217011092160110920F011092BD
S11305600E0110921A0110921901109206011092B4
S1130570050182E08093040187E284B984E285B9AD
S11305801BB880EC8AB9F8940E945B000E94480072
S1130590789421E08BB1827090E090930301809372
S11305A00201892B19F42093180102C0109218013A
S11305B08FE39CE90197F1F700C00000EBCFF894BA
S10505C0FFCF67
S9030000FC
