S01700004173686F7427735F70726F6A6563742E737265631E
S11300000C9434000C9461000C9459010C94460037
S11300100C9446000C9446000C9446000C94830007
S11300200C9446000C9446000C9446000C94460034
S11300300C9446000C9446000C9407010C94460062
S11300400C9446000C9446000C9446000C94460014
S11300500C9446000C9446000C9446000C94460004
S11300600C9446000C94460011241FBECFEFD8E038
S1130070DEBFCDBF21E0A0E0B1E001C01D92A731F9
S1130080B207E1F70E94CB010C94FF010C9400002D
S113009082E084BD85BD80936E0016BC97EC97BD4D
S11300A08093B0008093B100809370001092B200EE
S11300B09093B300089583E0809369008DBB8CBB5B
S11300C008951F920F920FB60F9211248F939F934E
S11300D080911301813081F481E090E090930B01D1
S11300E080930A01109204011092030180E090EAC7
S11300F090930D0180930C019F918F910F900FBEEF
S11301000F901F9018951F920F920FB60F92112403
S11301102F938F939F9380910A0190910B010197E4
S113012009F06DC010921301289A8091020188236E
S113013009F452C08091030190910401009731F5B4
S113014095B182E0892785B98091140190911501B8
S11301500196909315018093140180910C01909164
S11301600D018530910559F09695879590930D0171
S113017080930C0190930401809303010CC084E0EC
S113018090E0909304018093030105C0019790933C
S11301900401809303018091140190911501803E24
S11301A09E4269F51092150110921401809102018A
S11301B08150809302012998289895B184E0892779
S11301C085B98FEF91EE24E0815090402040E1F713
S11301D000C00000289A13C02A9A289810920B0194
S11301E010920A0181E090E0909301018093000154
S11301F0109212011092110184E0809302019F91E8
S11302008F912F910F900FBE0F901F9018951F92F2
S11302100F920FB60F9211248F939F938091000138
S1130220909101010197F1F55F9A809111019091EC
S113023012010097A1F49BB180E489278BB98091C6
S11302400E0190910F01019690930F0180930E017E
S113025082E390E0909312018093110105C001970D
S1130260909312018093110180910E0190910F01DE
S1130270883C9105B9F410920F0110920E0110926E
S11302800101109200015F985E9881E08093130150
S113029081E090E090930B0180930A011092040195
S11302A0109203019F918F910F900FBE0F901F909A
S11302B018951F920F920FB60F9211242F933F930C
S11302C08F939F93EF93FF931092130110920B015E
S11302D010920A0110920101109200015E985F9839
S11302E0289895B180E2892785B98BB1887080936D
S11302F01001811142C032E090E421E089B18071A3
S113030080930501882381F0289A85B1832785B9D4
S1130310EFECF7E03197F1F700C0000089B180718C
S1130320809305018111F0CF2898299889B18072B2
S1130330809308018823C9F0209316015F9A8BB13A
S113034089278BB9EFE1FEE43197F1F700C0000093
S1130350809116018F5F80931601893C78F389B1EF
S11303608072809308018111E7CF5F985E988BB10A
S1130370887080931001882309F281E0809313012F
S1130380FF91EF919F918F913F912F910F900FBE0D
S11303900F901F9018951092010110920001109275
S11303A00F0110920E01109212011092110110927D
S11303B00B0110920A01109215011092140110926F
S11303C004011092030184E08093020181E0809390
S11303D0130187E284B92A9A1BB880EC8AB9F8948D
S11303E00E945B000E94480078942FEF83ED90E315
S11303F0215080409040E1F700C00000F6CFF8940F
S1050400FFCF28
S9030000FC
