S01700004173686F7427735F70726F6A6563742E737265631E
S11300000C9434000C9461000C9459010C94460037
S11300100C9446000C9446000C9446000C94830007
S11300200C9446000C9446000C9446000C94460034
S11300300C9446000C9446000C9407010C94460062
S11300400C9446000C9446000C9446000C94460014
S11300500C9446000C9446000C9446000C94460004
S11300600C9446000C94460011241FBECFEFD8E038
S1130070DEBFCDBF21E0A0E0B1E001C01D92A431FC
S1130080B207E1F70E94B1010C94E6010C94000060
S113009082E084BD85BD80936E0016BC97EC97BD4D
S11300A08093B0008093B100809370001092B200EE
S11300B09093B300089583E0809369008DBB8CBB5B
S11300C008951F920F920FB60F9211248F939F934E
S11300D080910A01813081F481E090E090930901DC
S11300E080930801109204011092030180E090EAC9
S11300F090930C0180930B019F918F910F900FBEF1
S11301000F901F9018951F920F920FB60F92112403
S11301102F938F939F9380910801909109010197E8
S113012009F06DC010920A012B9A80910201882374
S113013009F452C08091030190910401009731F5B4
S113014095B180E2892785B98091120190911301BC
S11301500196909313018093120180910B01909169
S11301600C018530910559F09695879590930C0173
S113017080930B0190930401809303010CC084E0ED
S113018090E0909304018093030105C0019790933C
S11301900401809303018091120190911301803E28
S11301A09E4269F51092130110921201809102018E
S11301B08150809302012D982B9895B180E1892775
S11301C085B98FEF91EE24E0815090402040E1F713
S11301D000C000002B9A13C02A9A2B981092090190
S11301E01092080181E090E0909301018093000156
S11301F0109211011092100184E0809302019F91EA
S11302008F912F910F900FBE0F901F9018951F92F2
S11302100F920FB60F9211248F939F938091000138
S1130220909101010197F1F5299A80911001909123
S113023011010097A1F495B181E0892785B98091D6
S11302400D0190910E01019690930E0180930D0182
S113025082E390E0909311018093100105C001970F
S1130260909311018093100180910D0190910E01E2
S1130270883C9105B9F410920E0110920D01109270
S11302800101109200012998289881E080930A01C5
S113029081E090E090930901809308011092040199
S11302A0109203019F918F910F900FBE0F901F909A
S11302B018951F920F920FB60F9211242F933F930C
S11302C04F938F939F93EF93FF9310920A01109291
S11302D0090110920801109201011092000128985E
S11302E029982B9889B1887080930F014B9B24C067
S11302F029C02B9A85B1842785B98FEC97E00197A3
S1130300F1F700C000001A99F4CF2B982D980DC076
S1130310932F299A85B1822785B9EFE1FEE43197BD
S1130320F1F700C000009150A1F74D99F1CF299841
S113033028984B9B04C006C040E221E038EC1A998F
S1130340D8CFE3CF81E080930A01FF91EF919F9191
S11303508F914F913F912F910F900FBE0F901F904F
S11303601895109201011092000110920E01109242
S11303700D011092110110921001109209011092B6
S113038008011092130110921201109204011092AC
S1130390030184E08093020181E080930A01259A9D
S11303A0239A249A2C9A15B8209A219AF8940E9498
S11303B05B000E94480078942FEF83ED90E3215076
S11303C080409040E1F700C00000F6CFF894FFCFE2
S9030000FC
