S01700004173686F7427735F70726F6A6563742E737265631E
S11300000C9434000C9461000C946B010C94460025
S11300100C9446000C9446000C9446000C947E000C
S11300200C9446000C9446000C9446000C94460034
S11300300C9446000C9446000C94F0000C9446007A
S11300400C9446000C9446000C9446000C94460014
S11300500C9446000C9446000C9446000C94460004
S11300600C9446000C94460011241FBECFEFD8E038
S1130070DEBFCDBF21E0A0E0B1E001C01D92A731F9
S1130080B207E1F70E94E6010C941F020C940000F1
S113009082E084BD85BD80936E0016BC97EC97BD4D
S11300A08093B0008093B100809370001092B200EE
S11300B09093B300089583E0809369008DBB8CBB5B
S11300C008951F920F920FB60F9211248F939F934E
S11300D080910D01813059F42C9A81E090E0909345
S11300E00C0180930B0110920501109204019F9161
S11300F08F910F900FBE0F901F9018951F920F9223
S11301000FB60F9211242F938F939F9380910B011D
S113011090910C01019709F05BC010920D012B9A8C
S113012080910301882309F440C0809104019091D7
S113013005010097A1F495B180E2892785B98091E2
S11301401501909116010196909316018093150163
S113015084E090E0909305018093040105C0019729
S113016090930501809304018091150190911601EB
S1130170803E9E4269F510921601109215018091FD
S113018003018150809303012D982B9895B180E150
S1130190892785B98FEF91EE24E08150904020406B
S11301A0E1F700C000002B9A13C02C9A2B981092F0
S11301B00C0110920B0181E090E090930201809376
S11301C00101109214011092130182E08093030143
S11301D09F918F912F910F900FBE0F901F901895A4
S11301E01F920F920FB60F9211248F939F93EF9348
S11301F0FF938091010190910201019709F062C07F
S1130200299A80911301909114010097A1F495B15A
S113021081E0892785B981E390E09093140180936C
S11302201301809110019091110101969093110195
S11302308093100105C001979093140180931301DA
S11302408091100190911101883C9105E1F4109284
S113025011011092100110920201109201012998CB
S1130260289881E080930D0181E090E090930C0147
S113027080930B01109205011092040180910001FA
S11302808F5F80930001809100018230D9F489B19D
S1130290807480930901811111C091E0299A85B17C
S11302A0892785B9EFE1FEE43197F1F700C000003A
S11302B089B1807480930901882381F3299828984F
S11302C010920001FF91EF919F918F910F900FBEBB
S11302D00F901F9018951F920F920FB60F92112432
S11302E02F933F934F938F939F93EF93FF9310928A
S11302F00D0110920C0110920B0110920201109248
S11303000101289829982B982C9A89B18870809398
S1130310120140E221E038EC44C02B9A85B18427D5
S113032085B98FEC97E00197F1F700C000004C9974
S1130330F4CF2B982D980DC0932F299A85B182273D
S113034085B9EFE1FEE43197F1F700C00000915068
S1130350A1F71A99F1CF2998289889B180788093C8
S113036006018823F1F089B1807480930901811119
S113037010C0299A85B1822785B98FE19EE401973F
S1130380F1F700C0000089B18074809309018823CB
S113039081F32998289889B1807880930601811186
S11303A0E2CF4B9903C04C99B8CFC3CF2C9A81E0CC
S11303B080930D01FF91EF919F918F914F913F9108
S11303C02F910F900FBE0F901F901895109202015D
S11303D01092010110921101109210011092140157
S11303E01092130110920C0110920B01109216013D
S11303F010921501109205011092040182E080937D
S1130400030181E080930D0115B81BB814B81AB824
S1130410239A259A249A2C9A15B8209A219AF8940A
S11304200E945B000E94480078942FEF83ED90E3D4
S1130430215080409040E1F700C00000F6CFF894CE
S1050440FFCFE8
S9030000FC
